:020000040800F2
:10000000E04F0020E93D00089D0400089F0400081F
:10001000A3040008A7040008AB04000800000000C7
:10002000000000000000000000000000AF04000815
:10003000B104000800000000B3040008BD0400087B
:10004000033E0008033E0008033E0008033E00088C
:10005000033E0008033E0008033E0008033E00087C
:10006000033E0008033E0008033E0008033E00086C
:10007000033E0008033E0008033E0008033E00085C
:10008000033E0008033E0008033E0008033E00084C
:10009000B5040008033E0008033E0008033E0008C4
:1000A000033E0008033E0008033E0008033E00082C
:1000B000F703000887680008033E0008033E0008B5
:1000C000BF040008033E000845050008033E000881
:1000D000033E00089D620008D1620008033E00084C
:1000E00017040008033E0008033E000800F002F871
:1000F00000F05FF80AA090E8000C82448344AAF163
:100100000107DA4501D100F054F8AFF2090EBAE860
:100110000F0013F0010F18BFFB1A43F0010318473B
:10012000B8C60000D8C600000A444FF0000C10F812
:10013000013B13F0070408BF10F8014B1D1108BF65
:1001400010F8015B641E05D010F8016B641E01F805
:10015000016BF9D113F0080F1EBF10F8014BAD1C55
:100160000C1B09D16D1E58BF01F801CBFAD505E073
:1001700014F8016B01F8016B6D1EF9D59142D6D3CD
:10018000704700000023002400250026103A28BFF5
:1001900078C1FBD8520728BF30C148BF0B607047F9
:1001A000642908F08383002070471FB51FBD10B578
:1001B00010BD08F010FD1146FFF7F7FF00F0C6F87C
:1001C00008F02EFD03B4FFF7F2FF03BC08F032FD88
:1001D00010B50121084602F09EFC41F61F40A649D9
:1001E000088000204880632088800020C8804FF06D
:1001F000804002F0BBFD01221146900703F02DF96B
:100200000121880703F00EF910BD08B50121042073
:1002100002F074FC0121082002F070FC03208DF82C
:10022000020048208DF803004FF40140ADF80000B3
:100230006946924801F0A4FF4FF44070ADF8000009
:1002400069468F4801F09CFF08BD10B50446012C9B
:1002500004D1C1038A4802F040F804E04FF40041A1
:10026000874802F03CF810BD70B504460D46E0B278
:10027000FFF7EBFF284604F0EAFB0CB9012100E090
:1002800000210846FFF7E1FF70BD08B54FF40040BC
:10029000ADF8000003208DF8020010208DF8030057
:1002A0006946774801F06CFF08BD08B51C208DF841
:1002B000000000208DF8010001208DF802008DF86B
:1002C0000300684600F0D5FF22208DF800000020D2
:1002D0008DF8010002208DF8020001208DF8030046
:1002E000684600F0C6FF08BD10B502F099FA4FF459
:1002F000803002F0B5FA02F0F2FA0446012C24D163
:10030000102001F013FC022001F0FCFB002002F0A1
:100310002CFB002002F03BFBA00202F02FFB4FF46D
:10032000E011200402F004FB012002F00DFB00BFED
:10033000392002F0B8FA0028FAD0022002F007FBB8
:1003400000BF02F00DFB0828FBD110BDFFF7CCFF6A
:10035000FFF7ABFF0121042002F0D0FB4FF4E130A6
:1003600006F042F804F055FA03F0D0FDFFF78DFFD8
:10037000C8210120FFF778FF012000F0FBFD4FF4BA
:100380007A7004F064FB4FF47A7004F060FB4FF471
:100390007A7004F05CFB03F0B9FD042000F0E5FA8C
:1003A0008021364804F0C4FE05F069FE05F0A9FC82
:1003B000344805F016FD4FF4805001F09AFB06F02A
:1003C000ADFB06F0A0FB07F007FCFFF71EFFFFF7F1
:1003D000FFFE06F046FA0DE02B480078012809D10F
:1003E00004F0E8FF05F08DFC264805F0FAFC4020FB
:1003F00001F07FFBF0E710B50121880703F0DBFA7D
:10040000012807D10121800703F0E6FA00F081FB03
:1004100000F01DFB10BD10B54FF4805001F058FBEB
:1004200040B3012019490870000301F062FB154830
:1004300005F0D7FC164805F0F1FCD8B9144800784F
:10044000002817DD12480178124805F04DFD88B9E3
:100450001148007804280DD10D48007800EB4000C9
:100460004006010E0B4800F0C7FB09480178094817
:1004700000F001FC10BD00000C1900200008014034
:10048000000C0140020000207C0000200100002040
:10049000040000201619002000000020704700BF53
:1004A000FEE700BFFEE700BFFEE700BFFEE77047C4
:1004B0007047704710B506F0A9FB10BD704710B526
:1004C0004249434802F08BF918B14049404802F0D4
:1004D000A1F940493E4802F082F918B13D493C4833
:1004E00002F098F93C493A4802F079F918B13A49D2
:1004F000374802F08FF93949354802F070F918B1E0
:100500003649334802F086F93549314802F067F937
:1005100018B133492E4802F07DF932492C4802F0D7
:100520005EF918B12F492A4802F074F94FF0012101
:10053000274802F054F920B14FF00121244802F07D
:1005400069F910BD10B52149274802F048F918B1E2
:100550001E49254802F05EF91E49234802F03FF982
:1005600018B11C49204802F055F91B491E4802F0F9
:1005700036F918B118491C4802F04CF917491A48C5
:1005800002F02DF918B11549174802F043F9144942
:10059000154802F024F918B11149134802F03AF94C
:1005A0001049114802F01BF918B10E490E4802F02B
:1005B00031F94FF001210C4802F011F920B14FF050
:1005C0000121094802F026F910BD00000080000159
:1005D0000054004000400001000200010010000132
:1005E00000080001000400010058004010B5044656
:1005F000FE490978491CC8B203F086FFFC48007820
:10060000042801D0E41100E064131F2C00DB1F2438
:10061000F8490C7008460078F749097888421BDDD4
:1006200013E0F54800781F2802D1F349087004E070
:10063000F1480078401CF0490870EF48007810300D
:10064000C1B2EA48007803F0F9FFEA480078EA49C5
:1006500009788842E5DC29E0E6480078E64909782F
:10066000884208D1E44800781030C1B2DF480078F1
:1006700003F0E4FF1AE013E0DF48007818B9002027
:10068000DD49087004E0DC480078401EDA49087053
:10069000D94800781030C1B2D448007803F0CEFFBA
:1006A000D4480078D44909788842E5DBD1480078FD
:1006B0001030C1B2CD48007803F0C0FFCB480078BD
:1006C000401CCA49087008460078802801D10020E3
:1006D0000870C8480078C849087010BD0020C34998
:1006E0000870C4490870C4490870C4490870C449F6
:1006F0000860704710B502460B460020002B0DDD48
:10070000B2F90000002107E032F91140844201DD16
:1007100032F911004C1C21B29942F5DB10BD2DE9D4
:10072000F04300240CE0B749601C31F8200031F898
:100730002410401A00B2B44921F81400601C04B21D
:10074000B4F5C77FEFDD40F28F11AF48FFF7D2FF5E
:100750000746C7EBC7000FFA80F80024002618E010
:10076000A94830F9140000EB8000B8EB400F07DA1D
:1007700001223046711C0EB2A44941F8202006E047
:1007800000223046711C0EB2A04941F82020601CA6
:1007900004B2B4F5C77FE3DD0024002510E09B49D7
:1007A000601C51F8200051F82410401A012805D18E
:1007B0002846691C0DB2944921F81040601C04B20F
:1007C000701EA042EBDC012D12DD681E8E4931F94E
:1007D0001000B1F90010411A681E91FBF0F00FFAF9
:1007E00080F941F2707090FBF9F000B2BDE8F0833F
:1007F0000020FBE710B504460023002907DD002296
:1008000003E054F822000344521C8A42F9DB93FBB4
:10081000F1F318B210BD2DE9F04F4FF0000B00249A
:100820000CE07849601C31F8200031F82410401A9F
:1008300000B2754921F81400601C04B2B4F5C77FFA
:10084000EFDD40F28F117048FFF754FF074607EBCA
:10085000470040000FFA80FA002400251EE06A4895
:1008600030F914800146601C31F91060A01C31F988
:100870001090B04510DA4E450EDD601C31F91000C5
:1008800000EB8000BAEB400F06DA601C29466A1CB8
:1008900015B25E4A42F82100601C04B2B4F5C67F6E
:1008A000DDDD022D1ADD00240BE05849601C51F8F3
:1008B000200051F82410401A544941F82400601CCB
:1008C00004B2681EA042F0DC01B25048FFF792FF6C
:1008D00041F2707191FBF0F00FFA80FB5846BDE8D1
:1008E000F08F70B5002446480068B0F5C87F27DB5C
:1008F0003F480078012803D1FFF78DFF054602E04D
:10090000FFF70DFF05462A4641A1434807F092FF35
:10091000414B06220721142003F076FC642408E0F2
:10092000384850F82410A4F16400364A42F82010E8
:10093000641CB4F5C87FF3DB4FF49670304908604F
:1009400070BD38B50446012C08D134480823102264
:1009500006210090002003F0AFFD05E008231022DF
:100960000621002003F089FD38BD10B5044620485B
:1009700004702BA306221146002003F045FC28A397
:1009800006220721002003F03FFC194800780128C7
:1009900006D125A310220021302003F035FC1BE0F6
:1009A00013480078022806D121A31022002130200C
:1009B00003F02AFC10E00E480078032806D11EA39D
:1009C00010220021302003F01FFC05E01CA31022A0
:1009D0000021302003F018FC05480078012803D0DE
:1009E00003480078022831D101202DE010000020BA
:1009F0000000002011000020120000208F000020C5
:100A000030000020F81C0020D8190020C824002045
:100A10002564202000000000982C0020448D000850
:100A200020202020202020004543472000000000F7
:100A300050504720000000004753522000000000A3
:100A400053506F3200000000FFF77BFF10BD10B560
:100A50004FF48071F84801F026FC70B9F74800782F
:100A6000401CF649087008460078022808DB002080
:100A700008700120FFF779FF02E00020EF490870BD
:100A80004FF40041EC4801F00EFC70B9EC480078DE
:100A9000401CEB49087008460078022808DB00205B
:100AA00008700220FFF761FF02E00020E4490870AF
:100AB0004FF48071E34801F0F6FB70B9E24800782A
:100AC000401CE149087008460078022808DB002035
:100AD00008700320FFF749FF02E00020DA490870A0
:100AE0004FF40071D74801F0DEFB70B9D7480078A9
:100AF000401CD649087008460078022808DB002010
:100B000008700420FFF731FF02E00020CF49087091
:100B100010BD70B5CE480078401CCD49087008461D
:100B20000078C82840DB0020087004F0E2FBC949C7
:100B300008600846006800281ADA08460068404243
:100B400008600846007800F00F0042F2107191FB37
:100B5000F0F0642190FBF1F5BE480468E01704EB67
:100B6000107002112B46BCA1BE4807F063FE15E0D1
:100B7000B848007800F00F0042F2107191FBF0F0DD
:100B8000642190FBF1F5B3480468E01704EB1070A2
:100B900002112B46B4A1B34807F04CFEB14B06221C
:100BA0001146482003F030FBB2480078401CB149A0
:100BB000087008460078C8281DDB05F029FBAE49FF
:100BC000086008460068642190FBF1F201FB120402
:100BD000A948006890FBF1F523462A46A7A1A14841
:100BE00007F028FE9F4B06220721482003F00CFB4C
:100BF0000020A049087070BD70B505460C46662CF3
:100C000000DD66242819934909680160201D2844E5
:100C1000994909680160002104F1080029549A48A3
:100C20000078012804D1312104F10900295415E08C
:100C300095480078022804D1322104F10900295492
:100C40000CE091480078032804D1332104F1090015
:100C5000295403E0342104F1090029547021284665
:100C600005F0F9FB7021284605F02DFC702128467F
:100C700000F0E6F970BD2DE9FE43074688460024E2
:100C8000002668E106EB460017F810502D040020FE
:100C90007E497F4A126841F822007D4A126801EBC2
:100CA000820001682944016006EB4600012101EB46
:100CB00040003D5C2D027549754A126801EB8200C7
:100CC00001682944016006EB4600022101EB400067
:100CD0003D5C6E496E4A126801EB8200016829444E
:100CE00001606A496A4A126801EB82000168C1F337
:100CF0001101016006EB4600032101EB40003D5C61
:100D00002D0400206349624A126841F82200604ABB
:100D1000126801EB820001682944016006EB46007D
:100D2000042101EB40003D5C2D025A49584A1268EB
:100D300001EB820001682944016006EB46000521B1
:100D400001EB40003D5C5349514A126801EB8200BF
:100D50000168294401604F494D4A126801EB820045
:100D60000168C1F31101016048484949096850F818
:100D7000210049490968884206D244484449096823
:100D800050F821004449086040484149096850F83A
:100D9000210042490968884206D93C483C49096813
:100DA00050F821003D49086038483949096850F831
:100DB00021003B49086036480068401C34490860FF
:100DC00008460068B0F5FA7F34DB36483649374AC2
:100DD000374BCDE9002102902C4A4FF4FA712D488F
:100DE00003F024FF3148007801280CD13048026814
:100DF00030A11C4807F01EFD1A4B062211460020A8
:100E000003F002FA05E02EA306221146002003F0AB
:100E1000FBF92448007801285ED1234802682BA101
:100E2000104807F007FD0F4B06220721002003F0B2
:100E3000EBF957E08EE00000000801403C00002084
:100E40003D000020000C01403E0000203F0000203B
:100E5000400000203400002054643A2D25642E25E3
:100E600030326400982C002054643A25642E2530DA
:100E7000326400004100002038000020546D3A2503
:100E8000642E25303264000000000020C8240020B9
:100E900030000020F81C0020240000202800002042
:100EA0002C000020200000201C0000201800002042
:100EB0001400002053704F323A25642020000000B7
:100EC00053704F323A2020202000000048523A252B
:100ED00064202020000000004FA3062207210020EC
:100EE00003F092F94E484F49086000204E490860CF
:100EF000642428E04D4850F82410A4F164004B4AC3
:100F000042F820104A4850F82410A4F16400484ADE
:100F100042F82010454850F82400424909688842A8
:100F200004D2424850F824003E4908603F4850F837
:100F300024003D490968884204D93C4850F82400FF
:100F400039490860641CB4F5FA7FD3DB4FF4C870EC
:100F500038490860761C4645FFF694AEBDE8FE832E
:100F600008B5354808237322012100900A2003F0B8
:100F7000A3FA08BD10B504463048007820B100201F
:100F80002E49087002F0C2FF204603F0F5FC10BDA8
:100F900030B502460B460020002B0FDDB2F90040B1
:100FA000012108E032F91150A54202DD32F9114069
:100FB00008464D1C29B29942F4DB00BF30BD10B584
:100FC00002460B460020002B0DDDB2F90000002187
:100FD00007E032F91140844201DA32F911004C1C69
:100FE00021B29942F5DB10BDF0B505460C46059ED1
:100FF0000021A71A9F4201DB1F4600E0A71A38B262
:10100000002106E08F1835F8177026F811704F1C74
:1010100039B28142F6DBF0BD48523A202020200050
:10102000FFFF03002400002028000020C824002027
:10103000F81C002030000020648D000842000020D1
:1010400070B505460C46A2B24FF48C71284606F0E6
:101050007FFFA1B2022007F0DCF9022007F060F860
:10106000204670BD02460023402900D940210023BC
:1010700004E00448C05C1070521C5B1C8B42F8D327
:1010800008467047E24800200CB50020019000900F
:101090006C48006840F480306A49086000BF6948C5
:1010A000006800F4003000900198401C0190009806
:1010B00018B90198B0F5A06FF1D16248006800F44A
:1010C000003010B10120009001E000200090009855
:1010D000012843D15C48006840F010005A4908607C
:1010E0000846006820F0030008600846006840F0E9
:1010F000020008605348406852494860084640680A
:1011000048600846406840F480604860084640688F
:1011100020F47C1048600846406840F4E8104860BD
:101120000846006840F08070086000BF45480068CD
:1011300000F000700028F9D04248406820F0030019
:10114000404948600846406840F00200486000BFDF
:101150003C48406800F00C000828F9D10CBD10B5DF
:10116000FFF792FF10BD10B53648006840F001004F
:1011700034490860084640683449084031494860AD
:1011800008460068324908402E4908600846006851
:1011900020F4802008600846406820F4FE00486083
:1011A0004FF41F008860FFF7DAFF4FF00060294915
:1011B000086010BD10B5002100200022214B5B68A3
:1011C00003F00C0121B1042906D0082928D107E039
:1011D000214B224C236027E01F4B204C236023E04F
:1011E000184B5B6803F47010164B5B6803F4803295
:1011F000022303EB904022B9194B4343174C236061
:101200000DE0104B5B6803F4003323B1144B4343F0
:10121000124C236003E0104B4343104C236003E067
:101220000D4B0E4C236000BF00BF064B5B68C3F341
:1012300003130C4CE15C094B1B68CB40074C23604B
:1012400010BD000000100240002002400000FFF826
:10125000FFFFF6FE08ED00E000127A0044000020D7
:1012600000093D004800002031490143314A116026
:10127000704770B5002100230F22C47804B32D4CB1
:10128000246804F4E064C4F5E064210AC1F10403B5
:10129000CA40447804FA03F18478144021430901D8
:1012A000254C0678A155047804F01F050124AC40B4
:1012B00005786D11AD0005F1E025C5F8004109E0A4
:1012C000047804F01F050124AC401C4D067876110B
:1012D00045F8264070BD1A4A0A400243154B1B1FB1
:1012E0001A60704739B1134A121D12680243114B3C
:1012F0001B1D1A6006E00F4A121D126882430D4B37
:101300001B1D1A607047042808D14FF0E0210969BD
:1013100041F004014FF0E022116107E04FF0E021BD
:10132000096921F004014FF0E022116170470000CB
:101330000000FA050CED00E000E400E080E100E0D0
:1013400080FFFF1F10B50446FA48844208D10121EE
:10135000401501F0EDFB0021601501F0E9FB17E0FD
:10136000F548844208D10121001501F0E1FB00217C
:10137000201501F0DDFB0BE0F048844208D101218B
:10138000C80301F0D5FB00214FF4004001F0D0FB71
:1013900010BD30B50246002000235068E84C2040C4
:1013A0000D790C6844EA0524204350609068E54CB0
:1013B0002040D1E902542C434D7944EA45042043AE
:1013C0009060D06A20F470000C7C641EE4B2234369
:1013D00040EA0350D06230BD0021016001714171CB
:1013E0008160C16001210174704721B1826842F0BF
:1013F0000102826003E0826822F00102826070478D
:1014000021B1826842F48072826003E0826822F433
:1014100080728260704710B50023CBB21AB1446865
:101420001C43446002E044689C43446010BD8168F2
:1014300041F0080181607047014600208A6802F08F
:1014400008020AB1012000E000207047816841F0E5
:10145000040181607047014600208A6802F004029E
:101460000AB1012000E00020704721B1826842F4F7
:10147000A002826003E0826822F4A00282607047CA
:10148000014600208A6802F480020AB1012000E0CF
:101490000020704710B50A4600210023416821F45E
:1014A0006041531E41EA4331416010BD21B14268A1
:1014B00042F40062426003E0426822F4006242604B
:1014C0007047F0B504460D4600200021092D11DDBE
:1014D000E068A5F10A0606EB4607072606FA07F1BB
:1014E0008843A5F10A0606EB460603FA06F108430F
:1014F000E0600CE0206905EB4507072606FA07F1D6
:10150000884305EB450603FA06F108432061072AE4
:101510000FDA606B561E06EB86071F2606FA07F1E8
:101520008843561E06EB860605FA06F108436063FB
:1015300022E00D2A0FDA206BD61F06EB86071F2646
:1015400006FA07F18843D61F06EB860605FA06F170
:101550000843206310E0E06AA2F10D0606EB86075F
:101560001F2606FA07F18843A2F10D0606EB860650
:1015700005FA06F10843E062F0BD21B1826842F449
:101580008012826003E0826822F4801282607047D9
:101590000146C86C80B2704766484C30006870479E
:1015A00021B1426842F48062426003E0426822F462
:1015B00080624260704721B1426842F480524260CA
:1015C00003E0426822F48052426070470A460021DC
:1015D000816821F4E04111438160704721B1826844
:1015E00042F40042826003E0826822F4004282609A
:1015F000704721B1826842F40212826003E082687F
:1016000022F4021282607047014600208A6802F4C8
:1016100000120AB1012000E000207047F0B5044636
:101620001546002000220026092911DDE068A1F1FD
:101630000A0707EB470C072707FA0CF29043A1F1C2
:101640000A0707EB470703FA07F21043E0600CE0D4
:10165000206901EB410C072707FA0CF2904301EBDC
:10166000410703FA07F210432061A06BC0F3015653
:10167000EF1C06F1010CA7EB0C0707EB870C1F27EB
:1016800007FA0CF29043EF1C06F1010CA7EB0C07D4
:1016900007EB870701FA07F21043A063F0BD10B50E
:1016A0000A4600210023816B21F44011531E41EAB8
:1016B0000351816310BD08B5002300930090009B87
:1016C0000B440093009B1A6008BD08B50246002039
:1016D0000090009201F12800009B184400900098AF
:1016E000006880B208BD0A4600214168164B1940C7
:1016F0001143416070474162826270470A4600218F
:10170000416821F01F0111434160704740B1094910
:101710000831096841F40001064A0832116007E007
:1017200004490831096821F40001024A08321160B5
:10173000704700000024014000280140003C0140A7
:10174000FFFEF0FFFDF7F1FFFFFD3FFF0246002027
:1017500013680B400BB1012000E000207047CA4322
:101760000260704770B502460020002300240B126F
:101770005568CEB205EA060415681D4015B10CB1D6
:10178000012000E0002070BD00220A12D343036054
:101790007047000001684FF6FE72114001600021A1
:1017A000016041608160C1608D49884208D18C49E7
:1017B0000839496841F00F01894A083A51608AE0C6
:1017C00087491431884208D185490839496841F070
:1017D000F001834A083A51607DE08149283188420E
:1017E00008D17F490839496841F470617C4A083A58
:1017F000516070E07A493C31884208D17849083913
:10180000496841F47041764A083A516063E074498E
:101810005031884208D172490839496841F4702131
:101820006F4A083A516056E06D496431884208D1E8
:101830006B490839496841F47001694A083A5160B6
:1018400049E067497831884208D1654908394968D3
:1018500041F07061624A083A51603CE06149884257
:1018600006D1011F096841F00F01021F116032E02B
:101870005C491431884208D15A49091F096841F06E
:10188000F001584A121F116025E05649283188425C
:1018900008D15449091F096841F47061514A121F67
:1018A000116018E04F493C31884208D14D49091F69
:1018B000096841F470414B4A121F11600BE049491D
:1018C0005031884207D14749091F096841F4702106
:1018D000444A121F1160704710B50022026847F693
:1018E000F0739A430C6A8B6823430C6923434C6959
:1018F00023438C692343CC6923434C6A23438C6A7A
:1019000023431A430260CB6843600B6883604B68D3
:10191000C36010BD0021016041608160C160016150
:1019200041618161C161016241628162704721B19F
:10193000026842F00102026004E002684FF6FE73A2
:101940001A40026070471AB103680B43036002E05B
:1019500003688B43036070474160704701464868E5
:1019600080B2704701460020002201F080531BB175
:101970001C4B083B1A6802E0194B083B1A6802EA44
:1019800001030BB1012000E00020704700F08051FE
:1019900019B11449091F086002E01149083948606B
:1019A000704701460020002201F080531BB10D4B0F
:1019B000083B1A6802E00A4B083B1A6802EA010376
:1019C0000BB1012000E00020704700F0805119B1F8
:1019D0000449091F086002E001490839486070475E
:1019E0000800024008040240002044490860091D24
:1019F0000860091D0860091D086041483F4914310D
:101A00000860704700213D498279002A3AD00A4691
:101A1000126803689A430B461A600A1D126803682D
:101A20009A430B1D1A60027911440A6803681A432D
:101A30000A60324A0832126803689A432F4B08330F
:101A40001A601A1D126803689A432C4B0C331A60F3
:101A50004279102A0ED11A1F126803681A43274BC5
:101A600008331A601A1D126803681A43234B0C339B
:101A70001A600DE02149427911440A6803681A434B
:101A80000A6005E0027911440A6803689A430A6013
:101A900070470021016001710C21417100218171A9
:101AA00070471649103109680143144A1032116019
:101AB000704701460020114A143212680A400AB1E8
:101AC000012000E0002070470C4914310860704785
:101AD000014600200022094B1B6803EA0102074B64
:101AE00014331B680B4013B10AB1012000E0002041
:101AF000704702491431086070470000000401403B
:101B0000FFFF0F0001460020FE4A106800F0380079
:101B1000084310607047FB49096821F00801F94A41
:101B2000116011460968014311607047F549096861
:101B300021F01001F34A1160114609680143116058
:101B40007047F148EF494860F04848607047EE48F8
:101B5000EC494860ED4848607047EA48006940F049
:101B60008000E84908617047E648006940F080005D
:101B7000E449086170470420E249C96801F00101A5
:101B800009B101200EE0DF49C96801F0040109B183
:101B9000022007E0DB49C96801F0100109B1032008
:101BA00000E00420704700B502460423FFF7E3FF7E
:101BB000034603E0FFF7DFFF0346521E012B01D16E
:101BC000002AF7D102B90523184600BD30B50446F6
:101BD00004254FF43020FFF7E6FF0546042D17D10A
:101BE000C848006940F00200C649086108464461DF
:101BF000006940F0400008614FF43020FFF7D3FF48
:101C00000546C048006941F6FD710840BD490861BC
:101C1000284630BD10B504244FF43020FFF7C3FF31
:101C20000446042C16D1B748006940F00400B549B9
:101C300008610846006940F0400008614FF4302018
:101C4000FFF7B1FF0446AF48006941F6FB71084059
:101C5000AC490861204610BD00B502460423FFF7D9
:101C60008AFF034603E0FFF786FF0346521E012B5F
:101C700001D1002AF7D102B90523184600BD10B5DD
:101C800004244FF43020FFF7E7FF0446042C16D15C
:101C90009C48006940F004009A49086108460069C0
:101CA00040F0400008614FF43020FFF7D5FF0446B4
:101CB0009448006941F6FB7108409249086120464A
:101CC00010BD00208F49C96901F0020109B101204E
:101CD00000E00020704730B5A5250424FFF7F1FF90
:101CE00000B100254FF43020FFF75DFF0446042CBF
:101CF0003AD18548834988608448886008460069ED
:101D000040F0200008610846006940F0400008618A
:101D10004FF43020FFF747FF0446042C1BD17948CD
:101D2000006941F6DF71084076490861084600699C
:101D300040F01000086176480580E002FFF733FFAD
:101D40000446052C10D06F48006941F6EF71084039
:101D50006C49086108E0052C06D06A48006941F624
:101D6000EF71084067490861204630BD78B50646E6
:101D70000C46042500200090E802FFF714FF0546FA
:101D8000042D24D15F48006940F001005D490861DD
:101D90003480E802FFF707FF0546042D10D1B01C80
:101DA0000090200C00990880E802FFF7FCFE054631
:101DB0005448006941F6FE7108405249086106E046
:101DC0005048006941F6FE7108404E4908612846B6
:101DD00078BD70B504460D460426F002FFF7E3FE19
:101DE0000646042E11D14748006940F001004549DC
:101DF00008612580F002FFF7D6FE064641480069DB
:101E000041F6FE7108403F490861304670BD70B52B
:101E100005460E460424E002FFF7C5FE0446042CE6
:101E200017D13948374988603848886008460069C2
:101E300040F0100008612E80E002FFF7B4FE044677
:101E4000052C06D02F48006941F6EF7108402D4956
:101E50000861204670BD2DE9F04304464FF6FF7639
:101E60003746B046B1460425E443E6B2C4F307273B
:101E7000C4F307484FEA1469E802FFF794FE0546E9
:101E8000042D49D120481F498860204888600846B1
:101E9000006940F010000861FF2E06D01C48083091
:101EA0000680E802FFF77FFE0546042D08D1FF2FCC
:101EB00006D017480A300780E802FFF774FE05468F
:101EC000042D0AD1B8F1FF0F07D011480C30A0F84B
:101ED0000080E802FFF767FE0546042D0AD1B9F13C
:101EE000FF0F07D00A480E30A0F80090E802FFF775
:101EF0005AFE0546052D0FD00248006941F6EF71E4
:101F0000084007E00020024023016745AB89EFCD80
:101F100000F8FF1F664908612846BDE8F08330B528
:101F2000054604244FF43020FFF73DFE0446042C00
:101F300041D160485E4988605F4888600846006912
:101F400040F0200008610846006940F04000086148
:101F50004FF43020FFF727FE0446042C22D15448CA
:101F6000006941F6DF71084051490861084600697F
:101F700040F0100008611DB100205049088002E0C7
:101F8000A5204E4908804FF43020FFF70CFE044690
:101F9000052C10D04648006941F6EF7108404449CD
:101FA000086108E0052C06D04148006941F6DF7160
:101FB00008403F490861204630BDF0B505460E4651
:101FC000174604243B483A4988603B488860E00251
:101FD000FFF7E9FD0446042C19D13548006940F0AB
:101FE00010003349086147F0F80030432843334973
:101FF000891C0880E002FFF7D6FD0446052C06D0B8
:102000002B48006941F6EF710840294908612046D4
:10201000F0BD2748C069800870472548006A7047AE
:1020200000202349096801F0200109B1012000E0E6
:102030000020704729B11E4A126902431C4B1A61E5
:1020400004E01B4A12698243194B1A61704701462A
:102050000020012908D1164AD26902F001020AB112
:10206000012008E0002006E0114AD2680A400AB1C7
:10207000012000E0002070470D49C860704704202F
:102080000B49C96801F0010109B101200EE00849BE
:10209000C96801F0040109B1022007E00449C968D8
:1020A00001F0100109B1032000E004207047000096
:1020B0000020024023016745AB89EFCD00F8FF1FE8
:1020C00010B50446CC48844208D10121042000F018
:1020D0002FFD0021042000F02BFD46E0C74884427C
:1020E00008D10121082000F023FD0021082000F084
:1020F0001FFD3AE0C248844208D10121102000F0BF
:1021000017FD0021102000F013FD2EE0BD48844291
:1021100008D10121202000F00BFD0021202000F03B
:1021200007FD22E0B848844208D10121402000F098
:10213000FFFC0021402000F0FBFC16E0B348844285
:1021400008D10121802000F0F3FC0021802000F064
:10215000EFFC0AE0AE48844207D10121801500F06F
:10216000E7FC0021A01500F0E3FC10BD10B5012133
:10217000084600F0DDFC0021012000F0D9FC10BD74
:102180002DE9F0410246002500260020002300240E
:10219000002791F803C00CF00F0591F803C00CF074
:1021A000100CBCF1000F03D091F802C04CEA0505F9
:1021B00091F800C0BCF1000F31D0146800202BE072
:1021C0004FF0010C0CFA00F3B1F800C00CEA030662
:1021D0009E4220D183004FF00F0C0CFA03F7BC4352
:1021E00005FA03FC4CEA040491F803C0BCF1280F83
:1021F00006D14FF0010C0CFA00FCC2F814C00AE042
:1022000091F803C0BCF1480F05D14FF0010C0CFA56
:1022100000FCC2F810C0401C0828D1D31460B1F8EB
:1022200000C0BCF1FF0F34DD546800202EE000F147
:10223000080C4FF0010808FA0CF3B1F800C00CEAE2
:1022400003069E4221D183004FF00F0C0CFA03F7D6
:10225000BC4305FA03FC4CEA040491F803C0BCF14A
:10226000280F05D100F1080C08FA0CF8C2F8148008
:1022700091F803C0BCF1480F07D100F1080C4FF0F2
:10228000010808FA0CF8C2F81080401C0828CED3C8
:102290005460BDE8F0814FF6FF710180022181702A
:1022A0000421C17070470246002093680B400BB1B7
:1022B000012000E0002070470146886880B2704726
:1022C00002460020D3680B400BB1012000E0002043
:1022D00070470146C86880B270470161704741612C
:1022E00070470AB1016100E041617047C160704709
:1022F0004FF480320A43826181618261826982691E
:10230000704702460020434B18684FF68073184010
:1023100040EA021008433F4B186070473E49C861CD
:102320007047F0B50A46002300240021002500F084
:102330000046B6F1004F02D1364EF16901E0354E4C
:102340007168C0F3034583B200F44016B6F5401F30
:1023500008D121F070612F4E766826F070662D4FFF
:102360007E6012E000F48016B6F5801F06D10326C9
:1023700006FA05F4A14341F0706106E0460D36010E
:1023800003FA06F6B14341F0706122B1460D360101
:1023900003FA06F6314300F00046B6F1004F02D1D1
:1023A0001C4EF16101E01B4E7160F0BD30B50022A2
:1023B0008B071C0F0F2303FA04F2164B08338C1003
:1023C00053F824309343134C08348D1044F82530CF
:1023D00023468C1053F824308C07240F00FA04F4A1
:1023E00023430C4C08348D1044F8253030BD0A4985
:1023F000DC3108607047000000080140000C01401B
:10240000001001400014014000180140001C014070
:1024100000200140000001400000204210B50446A9
:10242000F748844209D10121480500F08EFB0021C4
:102430004FF4001000F089FB08E00121880500F04E
:1024400084FB00214FF4800000F07FFB10BD2DE9DC
:10245000F04385B004460D460026B1460427DFF858
:10246000A483A6884FF6C0700640684600F0D9FAEB
:10247000DDF80880E448B8FBF0F01FFA80F946EA7E
:102480000906A68020884FF6FE71084020800026AD
:10249000DE49286888420CD828684000B8FBF0F074
:1024A00087B2042F00DA04273E4309F1010020849B
:1024B00027E0E8884BF6FF71884206D1286800EBD8
:1024C0004000B8FBF0F087B209E0286800EBC001DB
:1024D00001EB0010B8FBF0F087B247F48047C7F378
:1024E0000B0008B947F0010747F4004006434FF4DA
:1024F000967009FB00F04FF47A7190FBF1F0401CEC
:102500002084A683208840F00100208026884FF692
:10251000F5300640A8886989084306432680A889C3
:1025200029890843208105B0BDE8F08341F2883154
:102530000160002181804BF6FF71C1800021018183
:1025400041814FF480418181704721B1028842F07E
:102550000102028004E002884FF6FE731A400280F6
:10256000704721B1828842F40062828004E0828850
:102570004FF2FF731A408280704721B1828842F483
:102580008052828004E082884EF6FF731A40828077
:10259000704721B1028842F48072028004E0028810
:1025A0004FF6FF631A400280704721B1028842F45F
:1025B0000072028004E002884FF6FF531A40028046
:1025C000704721B1028842F48062028004E00288F0
:1025D0004FF6FF331A40028070470A460021818976
:1025E0004FF60173194002F0FE03194381817047D1
:1025F00021B1828942F00102828104E082894FF692
:10260000FE731A408281704721B1028842F0400275
:10261000028004E002884FF6BF731A4002807047C0
:102620001AB183880B43838002E083888B438380C5
:102630007047018270470146088AC0B2704712B1E4
:1026400041F0010102E04FF6FE731940018270472C
:1026500008B50246002000900092009808440090BF
:102660000098008808BD21B1028842F4004202802F
:1026700003E00288C2F30E0202807047B1F5006FDA
:1026800004D1028842F40062028004E002884FF222
:10269000FF731A4002807047B1F5005F04D10288D1
:1026A00042F40052028004E002884DF6FF731A40A3
:1026B0000280704721B1028842F48052028004E017
:1026C00002884EF6FF731A4002807047B1F5006F22
:1026D00004D1028842F40062028004E002884FF2D2
:1026E000FF731A400280704721B1028842F0200235
:1026F000028004E002884FF6DF731A4002807047C0
:102700000146088B0012704721B1028842F0100286
:10271000028004E002884FF6EF731A40028070478F
:1027200021B9028842F08002028004E002884FF65C
:102730007F731A4002807047B1F5804F05D0828BBD
:102740004BF6FF731A40828303E0828B42F480428F
:102750008283704770B502460024002500230020C4
:10276000958A138B1B0445EA030626F07F4404EA8E
:1027700001068E4201D1012000E0002070BD10B59D
:1027800001460020002300228B8A0A8B120443EAB0
:10279000020424F07F4010BD0CB502460020002347
:1027A0000193009300920B0F019321F07F41019B55
:1027B0001BB1009B1433009303E0090C009B1833FA
:1027C0000093009B1B680B400BB1012000E0002030
:1027D0000CBD002221F07F42D3438382704730B585
:1027E000024600200023948801F0E06504EA1543C6
:1027F00021F07F41948A0C4054B14BB1012008E094
:102800000054004000127A0040420F00A0860100F0
:10281000002030BD002221F07F42D34383827047E5
:10282000DF48006840F00100DD4908600846406864
:10283000DC490840DA49486008460068DA4908403F
:10284000D74908600846006820F4802008600846E0
:10285000406820F4FE0048604FF41F008860704715
:10286000CF49096821F48031CD4A116011460968C9
:1028700021F480211160B0F5803F03D0B0F5802FA6
:102880000ED106E0C649096841F48031C44A11609E
:1028900007E0C349096841F4A021C14A116000E082
:1028A00000BF00BF704710B5014600220023002082
:1028B0004A11012A02D1BA4C236806E0022A02D149
:1028C000B74C236A01E0B64C636A01F01F02012491
:1028D00094401C400CB1012000E0002010BD38B530
:1028E000002000900024002500BF3120FFF7DBFF0F
:1028F00005460098401C00900098B0F5A06F01D0EC
:10290000002DF2D03120FFF7CEFF08B1012400E006
:102910000024204638BD01460020A14A106820F05E
:10292000F80040EAC10010607047A0490860704795
:10293000024600209A4B586820F47C1042EA0103BA
:102940001843974B5860704798490866704701468E
:102950000020934A506820F00300084350607047FD
:102960008F48406800F00C007047014600208C4AF8
:10297000506820F0F0000843506070470146002086
:10298000874A506820F4E060084350607047014671
:102990000020834A506820F4605040EAC100506033
:1029A000704729B17E4A527A02437D4B5A7204E045
:1029B0007B4A527A82437A4B5A7270477B49D831AC
:1029C0000860704701460020754A506820F4404076
:1029D0000843506070470021714A20321170704ADC
:1029E00082F82010012802D004280AD104E0012135
:1029F0006B4A2032117005E00521694A20321170BE
:102A000000E000BF00BF7047694908607047644933
:102A1000096A0143624A1162704765494439086096
:102A2000704730B500210022002400235C4D6D6802
:102A300005F00C0121B1042905D0082923D105E0B6
:102A40005C4D056022E05B4D05601FE0544D6D68F4
:102A500005F47012524D6D6805F48034022505EBC3
:102A600092421CB9544D554305600BE04C4D6D68C6
:102A700005F400351DB1504D5543056002E04D4D44
:102A80005543056002E04B4D056000BF00BF444D5B
:102A90006D6805F0F0010909484D6B5C0568DD4083
:102AA00045603F4D6D6805F4E061090A434D6B5C7C
:102AB0004568DD4085603A4D6D6805F46051C90A8E
:102AC0003E4D6B5C4568DD40C560354D6D6805F475
:102AD0004041890B3A4D6B5CC568B5FBF3F5056168
:102AE00030BD29B12E4A526902432D4B5A6104E090
:102AF0002B4A526982432A4B5A61704729B1284AAE
:102B000092690243264B9A6104E0254A9269824306
:102B1000234B9A61704729B1214AD2690243204B65
:102B2000DA6104E01E4AD26982431D4BDA617047C4
:102B300029B11B4AD2680243194BDA6004E0184AF3
:102B4000D2688243164BDA60704729B1144A126981
:102B50000243134B1A6104E0114A12698243104B7D
:102B60001A61704712494039086070470F49C864BC
:102B700070470B49C87170470948406A40F080703F
:102B800007494862704701460020054A92680A409A
:102B90000AB1012000E000207047014988727047A7
:102BA000001002400000FFF8FFFFF6FE0000424266
:102BB0008004424200127A0000093D0058000020C3
:102BC0006800002010B50446FE48844208D1012167
:102BD000C014FFF7ADFF0021E014FFF7A9FFC4E028
:102BE000B4F1804F08D101210846FFF7AEFF002164
:102BF0000120FFF7AAFFB8E0F348844208D1012181
:102C00000220FFF7A2FF00210220FFF79EFFACE0A9
:102C1000EE48844208D101210420FFF796FF0021ED
:102C20000420FFF792FFA0E0E948844208D1012187
:102C30000820FFF78AFF00210820FFF786FF94E0B5
:102C4000E448844208D101211020FFF77EFF0021D3
:102C50001020FFF77AFF88E0DF48844208D1012185
:102C60002020FFF772FF00212020FFF76EFF7CE09D
:102C7000DA48844208D101214014FFF759FF0021AE
:102C80006014FFF755FF70E0D548844209D1012157
:102C9000C804FFF74DFF00214FF40020FFF748FF65
:102CA00063E0D048844209D101210805FFF740FFC5
:102CB00000214FF48010FFF73BFF56E0CA488442E2
:102CC00009D101214805FFF733FF00214FF400101F
:102CD000FFF72EFF49E0C548844208D1012140207A
:102CE000FFF733FF00214020FFF72FFF3DE0C048F2
:102CF000844208D101218020FFF727FF0021802096
:102D0000FFF723FF31E0BB48844208D10121801541
:102D1000FFF71BFF0021A015FFF717FF25E0B648BE
:102D2000844209D101210804FFF702FF00214FF47A
:102D30008030FFF7FDFE18E0B048844209D1012140
:102D40004804FFF7F5FE00214FF40030FFF7F0FED6
:102D50000BE0AB48844208D101218804FFF7E8FE6C
:102D600000214FF48020FFF7E3FE10BD002202880F
:102D7000944B98420ED0994B98420BD0B0F1804FB3
:102D800008D0914B984205D0904B984202D0904B7E
:102D9000984204D14FF68F731A404B881A438D4BDB
:102DA000984207D08C4B984204D04FF6FF431A400C
:102DB000CB881A4302808B8883850B880385814BDF
:102DC00098420BD0854B984208D08B4B984205D047
:102DD0008A4B984202D08A4B984201D10B7A0386E3
:102DE00001238382704770B5002400220023058CE4
:102DF0004FF6FE7635400584028C8388048B4FF6AF
:102E00008F752C40B51E2C400D882C43751E2A4012
:102E10000D892A434D882A436A4DA8420BD06F4D35
:102E2000A84208D0744DA84205D0744DA84202D0E3
:102E3000734DA84213D14FF6F7752A404D892A43A6
:102E40004FF6FB752A408D882A434FF6FF652B40CD
:102E50004FF6FF552B408D892B43CD892B43838023
:102E60000483CD888586028470BD70B5002400225D
:102E70000023058C4FF6EF7635400584028C83885D
:102E8000048B48F6FF752C404FF6FF452C400D880B
:102E90004FF6FF7606EA05252C434FF6DF752A40EC
:102EA0000D8906EA05152A434D8806EA05152A43C9
:102EB000444DA84202D0494DA8421DD14FF67F751E
:102EC0002A404D894FF6FF7606EA05152A434FF64C
:102ED000BF752A408D8806EA05152A434FF6FF354F
:102EE0002B404FF2FF752B408D8906EA85052B4359
:102EF000CD8906EA85052B4383800483CD88058729
:102F0000028470BD70B5002400220023058C4FF6AA
:102F1000FF6635400584028C8388848B4FF68F755D
:102F20002C404FF6FC752C400D882C434FF6FF5576
:102F30002A400D894FF6FF7606EA05252A434D887B
:102F400006EA05252A431F4DA84202D0234DA84278
:102F50001DD14FF2FF752A404D894FF6FF7606EAE4
:102F600005252A434FF6FF352A408D8806EA0525B8
:102F70002A434EF6FF752B404DF6FF752B408D8989
:102F800006EA05152B43CD8906EA05152B438380F8
:102F90008483CD888587028470BD70B500220023AC
:102FA0000024058C4EF6FF7635400584038C84881A
:102FB000828B48F6FF752A404FF6FF452A400D8860
:102FC00020E00000002C0140000400400008004008
:102FD000000C00400010004000140040003401408C
:102FE000004C0140005001400054014000180040D6
:102FF000001C00400020004000400140004401400F
:10300000004801404FF6FF7606EA05252A434DF6B3
:10301000FF752B400D8906EA05352B434D8806EADE
:1030200005352B43FA4DA84202D0FA4DA84208D1EB
:103030004BF6FF752C408D894FF6FF7606EA851515
:103040002C4384808283CD88A0F84050038470BDD7
:10305000828B4FF2FF331A408283828B4FF6FF73CD
:1030600003EA01231A4382837047F0B50C461546E4
:10307000002200210026078C4EF6FF7C07EA0C0791
:103080000784828B018C4FF6FF7707EA043640F6FF
:10309000FF473A404FF6FF7707EA05273A434FF6D6
:1030A000FF7707EA03373A43D94FB8420ED0D94FDA
:1030B000B8420BD0B0F1804F08D0D74FB84205D0FE
:1030C000D64FB84202D0D64FB84206D14DF6FF7760
:1030D000394046F48057394305E047F6FF573940F9
:1030E00044F48057394382830184F0BD828B4FF6CC
:1030F000F3731A408283828B0A4382837047F0B550
:103100000C461546002200210026078C4FF6FF6C66
:1031100007EA0C070784828B018C4FF6FF7707EADA
:1031200004264FF60C773A404FF6FF7707EA03176D
:103130002F433A43B64FB8420ED0B64FB8420BD0E9
:10314000B0F1804F08D0B44FB84205D0B34FB84269
:1031500002D0B34FB84206D14FF6FF57394046F47C
:103160008077394305E04FF2FF57394044F48077C8
:10317000394382830184F0BD028B4FF2FF331A4042
:103180000283028B4FF6FF7303EA01231A43028383
:103190007047F0B50C461546002200210026078C2A
:1031A0004FF6EF7C07EA0C070784028B018C4FF681
:1031B000FF7707EA041640F6FF473A404FF6FF77DD
:1031C00007EA03373A434FF6FF7707EA05273A4302
:1031D0008F4FB8420ED08F4FB8420BD0B0F1804F16
:1031E00008D08D4FB84205D08C4FB84202D08C4FDA
:1031F000B84206D14FF6DF77394046F01007394321
:1032000005E04FF65F77394044F0100739430283F9
:103210000184F0BD028B4FF6F3731A400283028BD8
:103220000A4302837047F0B50C4615460022002180
:10323000068C4FF6FE773E400684028B018C4FF6DB
:103240000C7632407E1C06EA03162E433243704E43
:10325000B0420ED06F4EB0420BD0B0F1804F08D0CC
:103260006D4EB04205D06D4EB04202D06C4EB042B1
:1032700006D14FF6FD76314044F00106314305E0BA
:103280004FF6F576314044F0010631430283018464
:10329000F0BD70B505460C465D4885420ED05D48D0
:1032A00085420BD0B5F1804F08D05B48854205D0F0
:1032B0005A48854202D05A48854200D100E000BFFA
:1032C000208850B92389A28861882846FFF7ABFF80
:1032D000E1882846FFF79EFF25E0208804280AD1D0
:1032E0002389A28861882846FFF753FFE188284692
:1032F000FFF742FF17E0208808280AD12389A28817
:1033000061882846FFF7FBFEE1882846FFF7EEFEBE
:1033100009E02389A28861882846FFF7A6FEE18894
:103320002846FFF795FE70BD2DE9F04105460C4695
:1033300000260127608808B9022600E00026A08840
:10334000012801D1022700E001272088A0B92389A4
:10335000A28861882846FFF766FFE1882846FFF7C4
:1033600059FF23893A4631462846FFF712FFE18884
:103370002846FFF701FF13E02389A28861882846C9
:10338000FFF707FFE1882846FFF7F6FE23893A4654
:1033900031462846FFF747FFE1882846FFF73AFF06
:1033A000BDE8F0810A884B881A438B881A43CB8882
:1033B0001A430B891A434B891A438B891A43A0F885
:1033C000442070474FF6FF71818000210180C18049
:1033D0004180017270470021018041808180C1805D
:1033E000018141818181C18170470021018041803B
:1033F000012181800021C18001817047002101806D
:1034000041808180C18001814181818170470000BC
:10341000002C01400034014000040040000800403E
:10342000000C004021B1028842F00102028004E059
:1034300002884FF6FE731A400280704731B1B0F82F
:10344000442042F40042A0F8442005E0B0F84420B3
:10345000C2F30E02A0F8442070471AB183890B43CF
:10346000838102E083898B43838170478182704727
:1034700041EA0203A0F8483070471AB183890B4330
:10348000838102E083898B438381704701894FF6F2
:10349000F8721140018170470A46002101894FF6F8
:1034A0008F73194011430181704730B504460D46B2
:1034B00029462046FFF7F0FF208940F007002081D1
:1034C00030BD2DE9F04104460D4616461F46602DDD
:1034D00006D13B46012231462046FFF75AFE05E061
:1034E0003B46012231462046FFF79DFE29462046F5
:1034F000FFF7D2FF208940F007002081BDE8F0816E
:1035000030B50C4600210189C9B24FF6FF7505EAB6
:103510000325154325432943018130BD2DE9F041A1
:1035200005460E4617469846002443463A4631461D
:103530002846FFF7E5FF2C894FF6F870044044F069
:1035400007044FF68F70044044F070042C81BDE8EE
:10355000F081F0B504460D4616461F463B463246FE
:1035600029462046FFF7CCFF208940F48040208187
:10357000F0BD0185828270470A46002101884FF61E
:103580008F731940114301807047F0B50C46154602
:103590001E460021002200230189028B038C4FF676
:1035A000F877394021434FF6FC473A4040F2011783
:1035B0003A434FF6DD773B404FF6FF7707EA0617B1
:1035C0002F433B43018102830384F0BD0A4600215F
:1035D000018B4FF68F7319401143018370470A46E0
:1035E0000021018B48F6FF7319404FF6FF7303EA81
:1035F00002231943018370470A460021818B4FF64D
:103600008F7319401143818370470A460021818BD3
:1036100048F6FF7319404FF6FF7303EA022319437C
:103620008183704721B1028842F08002028004E069
:1036300002884FF67F731A400280704721B182885A
:1036400042F00402828004E082884FF6FB731A4045
:103650008280704721B1828842F00802828004E0B3
:1036600082884FF6F7731A408280704721B18288B2
:1036700042F00102828004E082884FF6FE731A4015
:10368000828070470A460021018B4FF6F77319407C
:103690001143018370470A460021018B4FF2FF73EB
:1036A00019404FF6FF7303EA022319430183704761
:1036B0000A460021818B4FF6F7731940114381832D
:1036C00070470A460021818B4FF2FF7319404FF675
:1036D000FF7303EA02231943818370470A460021DE
:1036E000018B4FF6FB7319401143018370470A4663
:1036F0000021018B4FF6FF3319404FF6FF7303EAA9
:1037000002231943018370470A460021818B4FF63B
:10371000FB7319401143818370470A460021818B56
:103720004FF6FF3319404FF6FF7303EA02231943A4
:10373000818370470A460021018B4FF67F73194041
:103740001143018370470A460021018BC1F30E012A
:103750004FF6FF7303EA02231943018370470A46B9
:103760000021818B4FF67F7319401143818370478D
:103770000A460021818BC1F30E014FF6FF7303EA65
:1037800002231943818370470A460021018C4FF6BA
:10379000FD7319401143018470470A460021018CD2
:1037A0004FF6F77319401143018470470A46002110
:1037B000018C4FF6DF7319404FF6FF7303EA0213D3
:1037C0001943018470470A460021018C4FF67F732C
:1037D00019404FF6FF7303EA02131943018470473F
:1037E0000A460021018C4FF6FF5319404FF6FF7334
:1037F00003EA02231943018470470A460021018C21
:103800004FF2FF7319404FF6FF7303EA0223194387
:10381000018470470A460021018C4DF6FF73194060
:103820004FF6FF7303EA023319430184704730B542
:10383000002301248C40A3B2048C9C430484048C98
:1038400002FA01F5ADB22C43048430BD30B500233B
:1038500004248C40A3B2048C9C430484048C02FA9C
:1038600001F5ADB22C43048430BD70B50346002091
:1038700000241846183001258D40ACB21D8CA5439C
:103880001D8409B1082909D100EB6100056825F004
:10389000700505600568154305600EE00D1FC5F352
:1038A0004E052844056825F4E045056005684FF697
:1038B000FF7606EA02263543056070BD21B1028815
:1038C00042F00202028004E002884FF6FD731A40C3
:1038D0000280704721B1028842F00402028004E0B5
:1038E00002884FF6FB731A400280704721B182882C
:1038F00042F08002828004E082884FF67F731A4093
:103900008280704702884FF6F7731A40028002885F
:103910000A430280704782884FF68F731A40828074
:1039200082880A438280704702894FF6F8731A40F2
:10393000028102890A430281704702894FF67F7330
:103940001A40028102890A430281704781847047CC
:1039500081857047818670470187704781877047EE
:10396000A0F84010704702884FF6FF431A400280CB
:1039700002880A43028070470146888E70470146DC
:10398000088F70470146888F70470146B1F84000A4
:1039900070470146888C70470146088D7047024683
:1039A0000020138A0B400BB1012000E0002070477B
:1039B000CA430282704730B502460020002300242B
:1039C000158A05EA0103958905EA010413B10CB1D2
:1039D000012000E0002030BDCA4302827047000091
:1039E00010B50446FB48844209D101218803FFF742
:1039F0009FF800214FF48040FFF79AF832E0F64834
:103A0000844209D101214804FFF79FF800214FF4B7
:103A10000030FFF79AF825E0F048844209D10121EF
:103A20008804FFF792F800214FF48020FFF78DF80B
:103A300018E0EB48844209D10121C804FFF785F85A
:103A400000214FF40020FFF780F80BE0E5488442A6
:103A500008D101210805FFF778F800214FF4801004
:103A6000FFF773F810BD2DE9F04786B005460E4606
:103A70000024A24600BFA1460027B08900B100BFC4
:103A80002F462C8A4CF6FF700440F08804432C82A9
:103A9000AC894EF6F3100440B0883189084371892F
:103AA00008430443AC81AC8A4FF6FF400440B08920
:103AB0000443AC8201A8FEF7B4FFC648874202D196
:103AC000DDF810A001E0DDF80CA0A88900F40040AA
:103AD00040B10AEBCA0000EB0A1031684900B0FBA4
:103AE000F1F807E00AEBCA0000EB0A103168890020
:103AF000B0FBF1F86420B8FBF0F004012009642168
:103B000001FB1089A88900F4004040B1322000EB8D
:103B1000C900B0FBF1F000F00700044308E03220D8
:103B200000EB09106421B0FBF1F000F00F0004433A
:103B30002C8106B0BDE8F0874FF4165101600021DA
:103B40008180C18001810C214181002181817047E8
:103B500010B502460020108A4FF2FF0318400B8870
:103B60004C8823438C882343CC88234318431082FA
:103B700010BD0021018041808180C180704721B14A
:103B8000828942F40052828104E082894DF6FF73FB
:103B90001A4082817047F0B50346002400260025B4
:103BA000002040F66A17B94200D100BF1846C1F3A1
:103BB000421401F01F06012707FA06F5012C01D176
:103BC0000C3004E0022C01D1103000E014301AB1A6
:103BD00007682F43076002E00768AF430760F0BD46
:103BE0001AB1838A0B43838202E0838A8B438382E8
:103BF0007047028A4FF6F0731A400282028A0A4323
:103C00000282704782894FF2FF731A408281828953
:103C10000A438281704721B1828942F00202828187
:103C200004E082894FF6FD731A4082817047028A50
:103C30004FF6DF731A400282028A0A4302827047FB
:103C400021B1028A42F48042028204E0028A4BF6E9
:103C5000FF731A4002827047C1F3080282807047E6
:103C600001468888C0F308007047818941F001014E
:103C700081817047028BD2B20283028B42EA012219
:103C800002837047028B02F47F420283028B0A4355
:103C90000283704721B1828A42F02002828204E0CE
:103CA000828A4FF6DF731A408282704721B1828A7E
:103CB00042F01002828204E0828A4FF6EF731A40CB
:103CC0008282704721B1828A42F00802828204E037
:103CD000828A4FF6F7731A408282704721B1828937
:103CE00042F40042828103E08289C2F30E028281A3
:103CF000704721B1828A42F40062828204E0828AA3
:103D00004FF2FF731A4082827047828A4FF6FB732C
:103D10001A408282828A0A438282704721B1828A53
:103D200042F00202828204E0828A4FF6FD731A405A
:103D30008282704702460020B1F5007F00D100BFAB
:103D400013880B400BB1012000E00020704701F404
:103D50000072B2F5007F00D100BFCA4302807047F5
:103D600070B50246002400230025002040F66A16A4
:103D7000B14200D100BFC1F3421501F01F0301267B
:103D800006FA03F3012D02D19689334006E0022D95
:103D900002D1168A334001E0968A33400C12012684
:103DA00006FA04F41688344013B10CB1012000E087
:103DB000002070BD10B50022002340F66A14A14215
:103DC00000D100BF0A1201249440A3B2DC43048056
:103DD00010BD000000380140004400400048004091
:103DE000004C004000500040094880470948004707
:103DF000FEE7FEE7FEE7FEE7FEE7FEE7FEE7FEE79B
:103E0000FEE7FEE704480549054A064B70470000F7
:103E100067110008ED000008E0490020E04F002095
:103E2000E04B0020E04B002001460A4600E0521C17
:103E300010780028FBD1501A704770B504460E4622
:103E400026B10221FA48FEF748FA03E00221F848B9
:103E5000FEF745FA0121F648FEF741FA002517E082
:103E60002021F348FEF73BFA04F0800020B1102136
:103E7000EF48FEF732FA03E01021ED48FEF72FFA83
:103E80002021EB48FEF729FA6006040E681CC5B233
:103E9000082DE5DB0121E648FEF71FFA0221E44880
:103EA000FEF71BFA70BD70B504460D4605F1B00172
:103EB000C8B20021FFF7C1FF102141EA1410002110
:103EC000FFF7BBFF04F00F0141F001000021FFF7F5
:103ED000B4FF70BD10B500218D20FFF7AEFF0021AB
:103EE0001420FFF7AAFF0021AF20FFF7A6FF10BDA7
:103EF00010B500218D20FFF7A0FF00211020FFF753
:103F00009CFF0021AE20FFF798FF10BD70B5002484
:103F100019E004F1B001C8B20021FFF78EFF0021C3
:103F20000220FFF78AFF00211020FFF786FF0025FF
:103F300005E001210020FFF780FF681CC5B2802D3D
:103F4000F7DB601CC4B2082CE3DB70BD2DE9F04741
:103F500080460E461746994600250024A9F1200008
:103F6000C5B2B8F17F0F02DDA046B01CC6B2402F2B
:103F70004AD131464046FFF796FF002408E004EBA3
:103F80008511AC4A505C0121FFF757FF601CC4B299
:103F9000102CF4DB701CC1B24046FFF784FF0024F4
:103FA00009E004EB85111031A24A505C0121FFF7B2
:103FB00044FF601CC4B2102CF3DBB01CC1B24046FD
:103FC000FFF771FF002409E004EB85112031994AC5
:103FD000505C0121FFF731FF601CC4B2102CF3DBF1
:103FE000F01CC1B24046FFF75EFF002409E004EB7D
:103FF000851130318F4A505C0121FFF71EFF601C94
:10400000C4B2102CF3DB7BE0242F3DD13146404677
:10401000FFF749FF00240AE005EBC50104EB81012D
:10402000854A505C0121FFF708FF601CC4B20C2CCC
:10403000F2DB701CC1B24046FFF735FF00240BE0F5
:1040400005EBC50104EB81010C317B4A505C012179
:10405000FFF7F3FE601CC4B20C2CF1DBB01CC1B244
:104060004046FFF720FF00240BE005EBC50104EB01
:1040700081011831704A505C0121FFF7DEFE601C9F
:10408000C4B20C2CF1DB3BE0102F24D1314640466A
:10409000FFF709FF002408E004EB0511674A505CB4
:1040A0000121FFF7CAFE601CC4B2082CF4DB701CAF
:1040B000C1B24046FFF7F7FE002409E004EB05110A
:1040C00008315E4A505C0121FFF7B7FE601CC4B2A4
:1040D000082CF3DB14E0062F12D131464046FFF7DF
:1040E000E2FE00240AE005EB450104EB4101544ADD
:1040F000505C0121FFF7A1FE601CC4B2062CF2DB6C
:10410000BDE8F0872DE9F04706460D46174698466C
:104110000024A1467F2E02DD0026A81CC5B2182F60
:104120001FD14FF0000918E029463046FFF7BBFECB
:10413000002408E008EB0401424A505C0121FFF72B
:104140007CFE601CC4B2182CF4DB172C01D1681C57
:10415000C5B209F1010000F0FF09B9F1030FE3DB7B
:1041600000E000BF00BFBDE8F08710B502460120A7
:1041700000E050430B00A1F10104E1B2F9D110BD00
:104180002DE9FF5F074691461E460E9D4FF0000A3F
:10419000002435E0301B401EC1B20A20FFF7E5FFC6
:1041A000B9FBF0F00A21B0FBF1F201FB1208BAF101
:1041B000000F14D1701EA04211DDB8F1000F0CD118
:1041C000AB4605EBDB71491001FB0471C8B220233B
:1041D0002A460199FFF7BAFE10E04FF0010AAB46FC
:1041E00005EBDB71491001FB0471C8B208F1300125
:1041F000CBB22A460199FFF7A9FE00BF601CC4B2EA
:10420000B442C7DBBDE8FF9F2DE9F0410546884673
:1042100014461E46002737E0F35D224641462846F5
:10422000FFF794FE062C0FD1A81DC5B21DE00000BB
:10423000000C014024A80008C89A0008D89400087F
:10424000B092000821C40008102C03D105F1080029
:10425000C5B20AE0242C03D105F10C00C5B204E07C
:10426000402C02D105F11000C5B2C4F18000A84273
:1042700008DA00252046E11704EB517108EBE10153
:1042800001F0FF08781CC7B2F05D0028C4D1BDE87A
:10429000F0812DE9F05F05460E4692464FF0000B87
:1042A000BAF1180F30D1681D802803DC06F1080030
:1042B000402802DD0120BDE8F09F002420E0052019
:1042C00000FB045000F0FF08B14608F1050080280B
:1042D00003DC09F10800402801DD0020EBE7494636
:1042E0004046FFF7E0FD002706E0F749C85D0121E1
:1042F000FFF7A3FD781CC7B2052FF6DB601CC4B224
:10430000032CDCDB0020D6E74FF0010B00BF00BF21
:104310005846D0E72DE9F04704460CB9BDE8F087D0
:10432000A0780C2804D0102838D0182877D167E05E
:1043300000252DE020780C2101FB0500E17A01FB2E
:10434000050000F0FF0994F8018000261CE008EB4E
:104350000600C1B24846FFF7A6FD002710E0E11CA9
:10436000495D01EB4101C90006EB460201EB820108
:104370003944D64A505C0121FFF75FFD781CC7B273
:104380000C2FECDB701CC6B2022EE0DB681CC5B241
:10439000E01CFFF749FDA842CCD86BE0002529E0DE
:1043A0002078102101FB0500E17A01FB050000F0F7
:1043B000FF0994F80180002618E008EB0600C1B25E
:1043C0004846FFF770FD00270CE0E11C495D4901FC
:1043D00001EB06113944BE4A505C0121FFF72DFD67
:1043E000781CC7B2102FF0DB701CC6B2022EE4DBC3
:1043F000681CC5B2E01CFFF717FDA842D0D839E011
:10440000002530E02078182101FB0500E17A01FB4E
:10441000050000F0FF0994F8018000261FE028E065
:1044200008EB0600C1B24846FFF73DFD002712E049
:10443000E11C495D01EB4101C90001EB410106EBC3
:10444000460201EBC2013944A24A505C0121FFF748
:10445000F4FC781CC7B2182FEADB701CC6B2032E1E
:10446000DEDB681CC5B2E01CFFF7DEFCA842C9D841
:1044700000E000BF00BF00BF50E72DE9F047044651
:104480000E4617469846354612E029462046FFF765
:104490000AFDA14607E001210020FFF7CEFC09F14B
:1044A000010000F0FF09E0194845F4DC681CC5B2C2
:1044B0004545EADBBDE8F0872DE9F05F04460E468E
:1044C00017469846DDF828A04FF0000B354617E058
:1044D00029462046FFF7E7FCA1460CE059464A1C56
:1044E0001FFA82FB1AF801000121FFF7A6FC09F16F
:1044F000010000F0FF09E0194845EFDC681CC5B277
:104500004545E5DBBDE8F09F70B50446802C00D141
:104510000024A01CC4B202251FE005F1B001C8B2FE
:104520000021FFF78AFC102141EA14100021FFF757
:1045300084FC04F00F000021FFF77FFC0021A01E87
:10454000654A02EBC0004155A11E02EBC101485D66
:104550000121FFF772FC681CC5B2062DDDDB70BDC2
:104560002DE9F04105460C460126A046E11704EB73
:104570005171C910B031C8B20021FFF75EFCA81C10
:10458000C5B2102141EA15100021FFF756FC05F0D5
:104590000F000021FFF751FC2046E11704EB517199
:1045A000C910A4EBC101CFB20FBBE11704EB5171ED
:1045B000CA10A91E484B03EBC101895C3143E217C5
:1045C00004EB5272D310AA1EDFF80CC10CEBC2022E
:1045D000D154A046E11704EB5171CA10A91E6346DD
:1045E00003EBC101885C0121FFF727FC24E006FAF8
:1045F00007F0C6B2E11704EB5171CA10A91E364B81
:1046000003EBC101895C31432046E21704EB52728F
:10461000D310AA1EDFF8C0C00CEBC202D154A046D2
:10462000E11704EB5171CA10A91E634603EBC101E7
:10463000885C0121FFF701FCBDE8F0812DE9F0471E
:1046400005460F464FF001083F2F00DD3F27C7F119
:104650003F00C4B22046E11704EB5171CE1006F1C1
:10466000B001C8B20021FFF7E8FBA81CC5B21021B9
:1046700041EA15100021FFF7E0FB05F00F000021D3
:10468000FFF7DBFB2046E11704EB5171C910A4EBE7
:10469000C10101F0FF0908FA09F000F0FF08A81EA7
:1046A0000D4901EBC000805D40EA0800A91E0A4ADE
:1046B00002EBC1018855A91E02EBC101885D0121F1
:1046C000FFF7BBFBBDE8F087CCC20008D1C20008F1
:1046D00061C3000821C40008A82C002070B5024660
:1046E0000023142425E0E01A02280FDAC64850F807
:1046F0002300904201D1194607E0C34850F8240036
:10470000904201D1214600E0002113E0E01800EBC7
:10471000D076C6F34F01BC4830F8210085B29542EF
:1047200000D107E0954202DD481E84B201E0481C3A
:1047300083B2D8E700BFB54800EB411070BD30B57B
:10474000002311E00C780470401C0C88240A0470CB
:10475000401C0C68240C0470401C0C68240E04706F
:10476000401C091D5C1CE3B2D51702EB9575B3EB39
:10477000A50FE7DB30BD2DE9F04389B080460E463A
:104780001546202101A804F086F92F786D1C2878A1
:1047900040EA07273846FFF7A1FF81462022494615
:1047A00001A8FFF7CCFF31464046FFF77CFB002411
:1047B00006E001A9085D0121FFF73FFB601CC4B2C0
:1047C000102CF6DB701CC1B24046FFF76CFB0024D6
:1047D00008E001AA04F11001505C0121FFF72DFB54
:1047E000601CC4B2102CF4DB09B0BDE8F08370B5D6
:1047F00005460E46144608E0224631462846FFF795
:10480000BAFFA41C05F11000C5B220780028F3D12E
:1048100070BD08B501210846FEF770F901217C48FA
:10482000FDF77FFD01210820FEF768F93B20ADF878
:10483000000010208DF8030003208DF80200694667
:104840007448FDF79DFC3B217248FDF746FD0821A9
:104850007048FDF742FD642000F0F9F808216D482A
:10486000FDF73DFD642000F0F2F808216948FDF7EE
:1048700034FD0021AE20FFF7E0FA00210220FFF70F
:10488000DCFA00211020FFF7D8FA00214020FFF7C2
:10489000D4FA00218120FFF7D0FA0021CF20FFF7C2
:1048A000CCFA0021A120FFF7C8FA0021C820FFF7A9
:1048B000C4FA0021A620FFF7C0FA0021A820FFF7C4
:1048C000BCFA00213F20FFF7B8FA00218120FFF752
:1048D000B4FA0021FF20FFF7B0FA0021D320FFF740
:1048E000ACFA00210846FFF7A8FA0021D520FFF70F
:1048F000A4FA00218020FFF7A0FA0021D920FFF7B9
:104900009CFA0021F120FFF798FA0021DA20FFF746
:1049100094FA00211220FFF790FA0021DB20FFF724
:104920008CFA00214020FFF788FA00212020FFF7B1
:1049300084FA00210220FFF780FA00218D20FFF782
:104940007CFA00211420FFF778FA0021A420FFF759
:1049500074FA0021A620FFF770FA0021AF20FFF7BC
:104960006CFA0021AF20FFF768FAFFF7CFFA0021B9
:104970000846FFF798FA08BD3EB50446012C02D060
:10498000022C3DD13DE001208DF8030002218DF87D
:10499000041003218DF8051000218DF80610142055
:1049A0008DF8000001208DF8010006208DF80B0025
:1049B00018208DF802006846FFF7ACFC01208DF846
:1049C000030002218DF8041003218DF80510042145
:1049D0008DF8061005218DF8071000218DF80810BC
:1049E00014208DF8000005208DF8010006208DF8B8
:1049F0000B000C208DF802006846FFF78BFC00BF0F
:104A000000BF00BF00BF3EBDBC8F00081090000873
:104A100000023000000C0140014601EBC1024FF0E2
:104A2000E0235A6100229A6101221A6100BF4FF00F
:104A3000E022106900F001021AB100F48032002A6D
:104A4000F5D000224FF0E0231A619A6170470146C9
:104A500042F228324A434FF0E0235A6100229A6121
:104A600001221A6100BF4FF0E022106900F001023C
:104A70001AB100F48032002AF5D000224FF0E02372
:104A80001A619A617047000030B50C46012213E0AC
:104A900050F82230114605E04D1E50F8255040F8E0
:104AA0002150491E002904DD4D1E50F825509D421D
:104AB000F2DC40F82130521CA242E9DB30BDF0B5F7
:104AC00003461546012217E051F82240104605E042
:104AD000461E51F8266041F82060401E002808DD7F
:104AE00053F82470461E51F8266053F82660B742EA
:104AF000EEDC41F82040521CAA42E5DBF0BD2DE976
:104B0000F04F05460C469246984629465046226884
:104B1000FFF7D5FF4FF0FF3621E0D4F800B0701C4E
:104B20002060771C18E055F82710701C10B94FF062
:104B3000FF3001E055F82600A1EB0009C14503DC78
:104B4000C8F10000814506DA55F827102268501C8C
:104B5000206045F822107F1C5F45E4DB761C20684E
:104B6000B042DADC28462168FFF78EFFBDE8F08FFF
:104B7000F0B505461C46059E012000270F6030E079
:104B800052F82070B7422BDD52F820C0471E52F871
:104B90002770BC4524DD012300E05B1CC718A74239
:104BA00007DA52F8207000EB030C52F82CC067456E
:104BB000F3D052F8207000EB030C52F82CC067457C
:104BC0000CDD0F680F2F09DAD1F800C00CF10107D6
:104BD0000F6045F82C005F1C384402E0184400E0E8
:104BE000401C671E8742CBDCF0BD2DE9F847054627
:104BF0000C4616461F46DDE90A9ADDF824803B463E
:104C0000324621462846CDF80080FFF7B1FF4B46DB
:104C1000324621462846FFF772FF2068504501DAE8
:104C2000206800E050462060BDE8F8872DE9FF4F7E
:104C3000C6B08846994600204590002406E0469874
:104C400050F82410459808444590641C4445F6DB10
:104C50004598B0FBF8F04590002408E0469850F8DD
:104C600024104598081AFD4941F82400641C444565
:104C7000F4DB002417E0F94850F824100246601CC9
:104C800052F820000144A01C52F820000144E01C0E
:104C900052F820000F183846F91707EB9171891068
:104CA00042F82410641CB4F5F87FE4DB00240AE029
:104CB000EA49601C51F8200051F82410401AE849D4
:104CC00041F82400641CB4F5F77FF1DD00240EE008
:104CD000E34951F824200B46611C53F82110501869
:104CE00000EBD07149101A4642F82410641CB4F548
:104CF000F77FEDDB00251BE0002043902C460BE006
:104D0000D74850F82410601BD64A32F81020439838
:104D100001FB12004390641C681D8442F0DB40F2EA
:104D20007A41439890FBF1F0CD4941F825006D1C84
:104D3000B5F5F47FE0DD00204190002410E0C84884
:104D400050F82400002803DDC54850F8240003E093
:104D5000C34850F824004042419908444190641CE3
:104D6000B4F5F77FEBDD40F2EF11419890FBF1F0E5
:104D7000419005210822419840F2EF13CDE901212D
:104D80000090B74A40A912A8FFF72FFF002011900A
:104D90004098022821DB01240BE012A850F82410CF
:104DA000601E12AA52F82000091A119808441190A6
:104DB000641C40988442F0DB4098401E119991FB9E
:104DC000F0F0119041F27071119891FBF0F154984C
:104DD000016001215598017005E0A34954980160D4
:104DE000002155980170489810B94AB0BDE8F08F7D
:104DF000002407E012A850F82400801C30A941F8D4
:104E00002400641C40988442F4DB00240CE04698A3
:104E100050F82400914941F82400489850F82400A3
:104E2000924941F82400641C4445F0DB4FF0000B2C
:104E300000242CE00120449030A850F824A04FF02A
:104E400080703F900AF10500B0F5F77F1EDC0A384C
:104E500000281BDD054611E0804850F825103F98DA
:104E600081420ADA449808B1002044907B4850F807
:104E700025003F9021A840F824506D1C0AF1050040
:104E80008542E9DB449808B90BF1010B641C40989A
:104E90008442CFDBBBF1020F06DA7348C9F8000089
:104EA000002153980170A0E700242EE06B4951F8CF
:104EB00024200B46611C53F821100A44A11C53F80E
:104EC00021100A44E11C53F821105018C11700EBBF
:104ED000917189101A4642F82410644951F824202F
:104EE0000B46611C53F821100A44A11C53F82110F1
:104EF0000A44E11C53F821105018C11700EB9171BE
:104F000089101A4642F82410641CB4F5F87FCDDBF2
:104F1000002004900026002404E0002005A941F8A8
:104F20002400641C052CF8DB00240DE021A850F8B7
:104F30002400B0F5FA7F06DD4B48C9F800000021D7
:104F40005398017051E7641C5C45EFDB0024ADE031
:104F50004FF07F400D900C9021A9601C51F820006B
:104F600051F82410401A0A2877DD21A850F824505F
:104F700016E03A4850F825100C98814204DD374875
:104F800050F825000C900A95384850F825100D98D7
:104F9000814204DD354850F825000D900B956D1CBD
:104FA00021A9601C51F82000A842E2DC601C51F8E5
:104FB00020002E4951F8200021A951F824102B4A35
:104FC00052F82110401A21A951F824200B99891A6E
:104FD0004843109021A9601C51F8200051F824107A
:104FE000411A109890FBF1F021A951F824101F4AA2
:104FF00052F821100844109011460B9851F82010D7
:105000001098081A109021A9601C51F8200013492B
:1050100051F8200021A951F82410104A52F821100B
:10502000401A21A951F824200A99891A48430F905F
:1050300021A9601C51F8200051F82410411A0F9842
:1050400090FBF1F021A951F82410044A52F82110E4
:1050500008440F9011460B980AE026E068380020BB
:10506000A830002042C5000819FCFFFF384000208E
:1050700051F820100F98081A0F900C991098484377
:10508000C01103900D990F984843C711002F0CDDF4
:10509000052E0ADA039840B164210398484390FB37
:1050A000F7F005A941F82600761C641CABF101005D
:1050B000A0423FF74DAF314605A8FFF7E5FC30466B
:1050C00006EBD07149104291429901290EDD4299B7
:1050D000491E05AA52F8212005AB429953F8211028
:1050E000501800EBD0714910049104E005A94298D2
:1050F00051F820000490049802280DDD0498B82887
:105100000ADA09490498085C0E900E98C9F8000064
:1051100001215398017005E00448C9F800000021FE
:105120005398017000BF60E680C5000819FCFFFFBE
:1051300038B505460C46874804800088ADF8000065
:1051400014208DF8030003208DF802006946824880
:10515000FDF716F84FF6FF717F48FDF7C7F80020FE
:1051600038BD10B500247B4801887B48FDF7B5F8B1
:105170000220FFF751FC774801887748FDF7AFF828
:105180004FF4F570FFF748FC724801887248FDF74C
:10519000A4F86420FFF740FC6E4801886E48FDF7D4
:1051A00082F800B901244FF4F070FFF735FC69482C
:1051B00001886948FDF791F8204610BD70B5044696
:1051C000002520E0634801886348FDF788F8022045
:1051D000FFF722FC04F0010028B15E4801885E4818
:1051E000FDF77BF804E05B4801885B48FDF777F842
:1051F0002D20FFF711FC574801885748FDF76DF83F
:105200006410681CC5B2082DDCDB70BD70B50024CD
:1052100000251EE04F4801884F48FDF760F8022046
:10522000FFF7FAFB64104B4801884B48FDF755F82F
:105230000420FFF7F1FB474801884748FDF733F8A2
:10524000012801D144F080044120FFF7E5FB681CF0
:10525000C5B2082DDEDB204670BD70B505460E4692
:105260000020044605E0FFF7D1FF2855601CC0B2BE
:105270000446B442F7DB70BD10B5024600200021A1
:1052800006E0364B5B5C4340354CE05C4B1CD9B2CE
:105290009142F6DB10BD10B5FFF763FFCC20FFF79E
:1052A0008DFF4E20FFF78AFF1920FFF787FF1A2096
:1052B000FFF784FF7F20FFF781FFFFF752FFCC202D
:1052C000FFF77CFF4820FFF779FFFFF74AFFCC206C
:1052D000FFF774FFB820FFF771FF10BD10B5FFF79F
:1052E00040FF3320FFF76AFF08211E48FFF7B5FF94
:1052F00010BD10B50024FFF7F1FFFFF7CCFFFFF75B
:1053000030FFCC20FFF75AFF4420FFF757FFFFF78D
:1053100028FFCC20FFF752FFBE20FFF74FFF0921E7
:105320000E48FFF79AFF0920FFF7A6FF80B90B4848
:105330000178407800F0070001EB0024074840782E
:1053400000F0F800F82800D164420A20FFF764FB5F
:10535000204610BD6C0000200008014008480020D5
:1053600038C600086E00002008B501218805FDF749
:10537000D2FB01210820FDF7C1FB4FF44060ADF8DE
:10538000000003208DF802001C208DF80300694600
:10539000FB48FCF7F5FE4FF4C040ADF800000320D9
:1053A0008DF8020004208DF803006946F448FCF7EC
:1053B000E7FE08BD38B54FF44060ADF800000320AB
:1053C0008DF8020014208DF803006946EC48FCF7C4
:1053D000D7FE4FF40061EA48FCF765FF08BBE948D7
:1053E000FDF71CF8002417E04FF48061E448FCF757
:1053F00074FF0220FFF710FB4FF40061E048FCF758
:1054000052FF05464FF48061DD48FCF768FF02203B
:10541000FFF702FB601CC4B2092CE5DB0020DA496F
:10542000087038BD1FB5FFF79FFF0020ADF80400DE
:105430004BF6FF70ADF806000020ADF808004FF401
:105440008060ADF80A000001ADF80C00CF48009074
:105450006946CC48FCF7FBFF01221102C948FDF761
:10546000DFF80121C748FDF770F81FBD70B58CB09B
:1054700004460E46154601210846FDF732FBC14899
:1054800010300190029600200590802006900020A8
:105490000790089009904FF440500A9000200B901C
:1054A000012C09D103900495B948FCF773F901A9BF
:1054B000B748FCF711FA0CE05CB910200390049592
:1054C000B3481438FCF766F901A9B1481438FCF761
:1054D00003FA0CB070BD70B504460E4615464FF485
:1054E0002040AC49086007E0AA490868411EA94A63
:1054F000116008B9002070BD4FF40031A148FDF7DC
:105500004BF90028F0D1EAB23146FFF7AFFF012195
:105510009C48FDF73EF84FF480509E49086007E034
:105520009C490868411E9B4A116008B90020E2E7C7
:1055300099499448FDF730F90028F1D00022AE21B6
:105540009048FDF77CF84FF480509249086007E0DE
:1055500090490868411E8F4A116008B90020CAE7C7
:105560008E498848FDF7F6F80028F1D02146854895
:10557000FDF75FF84FF480508649086007E08549E1
:105580000868411E834A116008B90020B3E78249C8
:105590007F317C48FDF700F930B97F49C91C794853
:1055A000FDF7FAF80028EAD001217648FCF7D9FF88
:1055B000012177481438FCF7BAF94FF420407549B7
:1055C000086007E073490868411E724A116008B913
:1055D000002090E74FF40050FCF7C4F90028F1D008
:1055E0004FF420406B49086007E06A490868411E93
:1055F000684A116008B900207DE76749C91C614805
:10560000FDF7CAF80028F0D101215E48FCF7CDFF74
:1056100000215F481438FCF78AF900215948FCF74B
:10562000A0FF4FF40050FCF7B1F9012063E770B51B
:1056300004460D464FF420405649086006E055499F
:105640000868411E534A116000B967E04FF4003109
:105650004C48FDF7A1F80028F1D14FF420404D4906
:10566000086001214748FCF794FF06E049490868B3
:10567000411E484A116000B950E049494148FDF7D0
:1056800069F80028F2D04FF4204042490860002217
:10569000AE213C48FCF7D3FF06E03E490868411EB6
:1056A0003C4A116000B939E03C493648FDF752F8F0
:1056B0000028F2D021463348FCF7BBFF4FF42040CE
:1056C0003449086006E033490868411E314A1160D8
:1056D00000B923E03149891E2A48FDF73BF800282C
:1056E000F1D029462748FCF7A4FF4FF42040294970
:1056F000086006E027490868411E264A116000B983
:105700000CE02649891C1F48FDF724F80028F1D039
:1057100001211C48FCF749FF012070BD01211948F7
:10572000FCF743FF0120184908700020F5E770B529
:1057300004460E4615464FF420401649086006E020
:1057400014490868411E134A116000B9C8E04FF4BB
:1057500000310C48FDF720F80028F1D1EAB23146BB
:105760000120FFF783FE01210648FCF706FF012117
:105770000448FCF70EFF4FF480500649086018E01B
:10578000000C0140005800407C000020801A0600F8
:10579000580002407800002001000010820007003D
:1057A00001000300FE490868411EFD4A116000B96E
:1057B00096E0FC49FC48FCF7EFFF0028F2D00121FD
:1057C000F948FCF7FEFE0022AE21F748FCF737FF50
:1057D0004FF48050F249086006E0F1490868411E24
:1057E000EF4A116000B97BE0F049EF48FCF7B2FFE7
:1057F0000028F2D02146EC48FCF71BFF4FF4805004
:10580000E749086006E0E6490868411EE44A11607D
:1058100000B965E0E3497F31E348FCF7BDFF30B9EB
:10582000E049C91CE048FCF7B7FF0028EBD0012194
:10583000DD48FCF7AEFE4FF48050D949086006E021
:10584000D7490868411ED64A116000B948E0D549D9
:10585000D548FCF7A1FF0028F2D00122AE21D248A2
:10586000FCF7EDFE4FF48050CD49086006E0CC49CE
:105870000868411ECA4A116000B931E0CC49CA48E3
:10588000FCF768FF0028F2D00121C748FCF769FE49
:105890000121C848FCF74BF84FF42040C04908608C
:1058A00006E0BF490868411EBD4A116000B917E013
:1058B0004FF40030FCF756F80028F2D00121BA4826
:1058C000FCF773FE0021BB48FCF731F80021B64815
:1058D000FCF747FE4FF40030FCF758F8012070BD8C
:1058E0000121B148FCF761FE0120B3490870002096
:1058F000F5E738B504460020009000BF0121AA4812
:10590000FCF747FE1421A848FCF7A2FE00900022F5
:105910002146A548FCF793FE1421A348FCF798FE06
:1059200000F002000028E9D0A4499F48FCF751FF8D
:1059300038BD70B504460D464FF4204098490860C4
:1059400006E097490868411E954A116000B99BE03E
:105950004FF400319448FCF71FFF0028F1D14FF4B9
:1059600020408F49086001218F48FCF712FE06E0B5
:105970008B490868411E8A4A116000B984E08C494D
:10598000491E8948FCF7E6FE0028F1D04FF420407C
:105990008349086000218448FCF713FE0022AE21F1
:1059A0008148FCF74CFE06E07D490868411E7C4AB0
:1059B000116000B968E07D497B48FCF7CBFE002808
:1059C000F2D04FF420407649086021467648FCF733
:1059D00030FE06E072490868411E714A116000B944
:1059E00052E07249891E7048FCF7B4FE0028F1D0DD
:1059F0004FF420406A49086001216B48FCF7C9FD5B
:105A000006E067490868411E654A116000B93BE03D
:105A10006749491E6448FCF79DFE0028F1D04FF409
:105A200020405F4908600122AE215F48FCF707FE75
:105A300006E05B490868411E594A116000B923E03D
:105A40005B495948FCF786FE0028F2D04FF420400D
:105A50005349086001215448FCF7A7FD06E050496E
:105A60000868411E4E4A116000B90DE050493E31B0
:105A70004D48FCF76FFE0028F1D04B48FCF7DBFDEA
:105A800006462E70012070BD01214748FCF78DFDB0
:105A90000120494908700020F5E72DE9F0418046D2
:105AA0000D461646002400274FF420403C4908606C
:105AB00006E03B490868411E394A116000B9B3E06D
:105AC0004FF400313848FCF767FE0028F1D14FF45D
:105AD00020403349086001213348FCF75AFD06E0B5
